:060000000A128A11122809
:10000800FE00030E83120313B1000408B2000A08AD
:10001800B3007F08B4000A128A11742A0A128A11DE
:10002800CB2A0A30F0000030F100831203132908AC
:10003800F301F3072808F201F2070A128A113022A5
:100048000A128A11700883120313AA002A08AB0047
:100058000A30F0000030F1002908F301F3072808FE
:10006800F201F2070A128A1198210A128A117108FC
:1000780083120313A901A9077008A801A8070A3069
:10008800F0000030F1002908F301F3072808F20115
:10009800F2070A128A1130220A128A117008831292
:1000A8000313AA002A08AC00403088002C08AA00D4
:1000B80003300310AA0DFF3E031D5D2803102A0D0F
:1000C8002B0486000830AA00AA0B68280A30F00022
:1000D8000030F100831203132908F301F3072808FD
:1000E800F201F2070A128A1198210A128A1171087C
:1000F80083120313A901A9077008A801A8070A30E9
:10010800F0000030F1002908F301F3072808F20194
:10011800F2070A128A1130220A128A117008831211
:100128000313AA002A08AB000A30F0000030F100DF
:100138002908F301F3072808F201F2070A128A11C5
:1001480098210A128A11710883120313A901A907B9
:100158007008A801A8070A30F0000030F10029084B
:10016800F301F3072808F201F2070A128A11302274
:100178000A128A11700883120313AA002A08AC0015
:10018800803088002C08AA0003300310AA0DFF3E17
:10019800031DC92803102A0D2B0486000830AA0065
:1001A800AA0BD42808000030FC000030FB00003007
:1001B800FA000030F900730872047104700403191E
:1001C800E628E7283B29FD010314FD0DF928013035
:1001D800F8000310F00DF10DF20DF30DF80BED28FA
:1001E8000130F8007808FD07F928F31FFC28FD28DE
:1001F800EB28FF28FF280130F8000310F90DFA0D4D
:10020800FB0DFC0DF80B012973087702031D162955
:1002180072087602031D162971087502031D162936
:1002280070087402031C19291A292A297008F40273
:100238007108031C710FF5027208031C720FF60295
:100248007308031C730FF70279142A29013003106D
:10025800F30CF20CF10CF00CFF3E031D2B290130BE
:10026800FD02031D38293929FF283B293B297C0831
:10027800F3007B08F2007A08F1007908F0004429BD
:100288000800831203132008F0002108F100F2018E
:10029800F3010030F7000030F6000030F5007B3045
:1002A800F4000A128A11E6210A128A1173088312CD
:1002B8000313A5007208A4007108A3007008A20027
:1002C8000030F3000030F2000030F1001930F00087
:1002D8002508F7002408F6002308F5002208F40092
:1002E8000A128A11D7200A128A117108831203137D
:1002F800A701A7077008A601A607133027028930AF
:1003080003192602031889298A2991292708A10196
:10031800A1072608A001A00797298830A00013305C
:10032800A100972997290800F501F60171087004C2
:1003380003199F29A029DE29F7010314F70DB02915
:1003480001300310F00DF10DFF3E031DA52901300A
:10035800F4007408F707B029F11FB329B429A429B8
:10036800B629B62901300310F50DF60DFF3E031D21
:10037800B72971087302031DC32970087202031C90
:10038800C629C729CF297008F2027108031CF30394
:10039800F3027514CF2901300310F10CF00CFF3E65
:1003A800031DD0290130F702031DDB29DC29B629FA
:1003B800DE29DE297608F101F1077508F001F0075A
:1003C800E52908000030FC000030FB000030FA008E
:1003D8000030F900EF29701CF229F3290B2A740860
:1003E800F907750803110318013E0319FC29FA07D8
:1003F800760803110318013E0319032AFB0777083F
:1004080003110318013E03190A2AFC070B2A0130BD
:10041800F8000310F40DF50DF60DF70DF80B0D2A85
:1004280001300310F30CF20CF10CF00CFF3E031D2D
:10043800152A7308720471047004031D242A252ADE
:10044800EF29262A7C08F3007B08F2007A08F100DD
:100458007908F0002F2A0800710870040319352A5A
:10046800362A6C2AF5010314F50D462A01300310CB
:10047800F00DF10DFF3E031D3B2A0130F400740816
:10048800F507462AF11F492A4A2A3A2A4C2A4C2AB1
:1004980071087302031D522A70087202031C552A40
:1004A800562A5D2A7008F2027108031CF303F3024E
:1004B8005D2A01300310F10CF00CFF3E031D5E2A8B
:1004C8000130F502031D692A6A2A4C2A6C2A6C2A13
:1004D8007308F101F1077208F001F007732A0800A8
:1004E800831603131E0883120313AD00AE011E0802
:1004F800AF00B0012F08B000AF012D082F04B500E0
:100508002E083004B6003608A101A1073508A0015D
:10051800A0070A128A1145210A128A1183120313AD
:100528002108A901A9072008A801A8070A128A1109
:1005380015200A128A11831203131F153408FF00AD
:1005480033088A0032088400310E8300FE0E7E0EC6
:1005580009008530831603139F008130831203132B
:100568009F000930831603138500880186018312D2
:1005780003130C13831603130C170B178B17831213
:1005880003131F15C72AC72A0A128A111228B50190
:0A059800B60183010A128A11AD2A90
:00000001FF
