:060000000A128A11B22F62
:100F6400F601F70183010A128A11C32F7008831254
:100F7400031386000817081371088600881788135E
:100F840008008E30831603139F004130831203132D
:100F94009F00831603130C1305080138850088018C
:100FA4008601D42F831203131F15D82F1F19DB2F8B
:100FB400DC2FD82FDD2F831603131E08F200F30154
:100FC400831203131E08F400F5017408F500F401FC
:100FD40072087404F60073087504F7007708F101C9
:100FE400F1077608F001F0070A128A11B8270A12ED
:0C0FF4008A11D42FD42F0A128A11002871
:00000001FF
